{
  "contractName": "Medical",
  "abi": [
    {
      "anonymous": false,
      "inputs": [
        {
          "indexed": false,
          "internalType": "uint256",
          "name": "patientId",
          "type": "uint256"
        },
        {
          "indexed": false,
          "internalType": "string",
          "name": "name",
          "type": "string"
        },
        {
          "indexed": false,
          "internalType": "string",
          "name": "cmt",
          "type": "string"
        },
        {
          "indexed": false,
          "internalType": "uint256",
          "name": "age",
          "type": "uint256"
        },
        {
          "indexed": false,
          "internalType": "uint256",
          "name": "sex",
          "type": "uint256"
        },
        {
          "indexed": false,
          "internalType": "bool",
          "name": "living",
          "type": "bool"
        }
      ],
      "name": "NewPatient",
      "type": "event"
    },
    {
      "anonymous": false,
      "inputs": [
        {
          "indexed": false,
          "internalType": "uint256",
          "name": "sickId",
          "type": "uint256"
        },
        {
          "indexed": false,
          "internalType": "string",
          "name": "name",
          "type": "string"
        },
        {
          "indexed": false,
          "internalType": "uint256",
          "name": "sickCode",
          "type": "uint256"
        }
      ],
      "name": "NewSick",
      "type": "event"
    },
    {
      "anonymous": false,
      "inputs": [
        {
          "indexed": true,
          "internalType": "address",
          "name": "previousOwner",
          "type": "address"
        }
      ],
      "name": "OwnershipRenounced",
      "type": "event"
    },
    {
      "anonymous": false,
      "inputs": [
        {
          "indexed": true,
          "internalType": "address",
          "name": "previousOwner",
          "type": "address"
        },
        {
          "indexed": true,
          "internalType": "address",
          "name": "newOwner",
          "type": "address"
        }
      ],
      "name": "OwnershipTransferred",
      "type": "event"
    },
    {
      "anonymous": false,
      "inputs": [
        {
          "indexed": false,
          "internalType": "address",
          "name": "_from",
          "type": "address"
        },
        {
          "indexed": false,
          "internalType": "address",
          "name": "_to",
          "type": "address"
        },
        {
          "indexed": false,
          "internalType": "uint256",
          "name": "_tokenId",
          "type": "uint256"
        }
      ],
      "name": "Transfer",
      "type": "event"
    },
    {
      "constant": true,
      "inputs": [
        {
          "internalType": "address",
          "name": "",
          "type": "address"
        }
      ],
      "name": "OwnerPatientCount",
      "outputs": [
        {
          "internalType": "uint256",
          "name": "",
          "type": "uint256"
        }
      ],
      "payable": false,
      "stateMutability": "view",
      "type": "function"
    },
    {
      "constant": true,
      "inputs": [
        {
          "internalType": "address",
          "name": "",
          "type": "address"
        }
      ],
      "name": "OwnerToPatient",
      "outputs": [
        {
          "internalType": "uint256",
          "name": "",
          "type": "uint256"
        }
      ],
      "payable": false,
      "stateMutability": "view",
      "type": "function"
    },
    {
      "constant": false,
      "inputs": [
        {
          "internalType": "uint256",
          "name": "_patientId",
          "type": "uint256"
        }
      ],
      "name": "PatientIdInSickCode",
      "outputs": [
        {
          "internalType": "uint256",
          "name": "",
          "type": "uint256"
        }
      ],
      "payable": false,
      "stateMutability": "nonpayable",
      "type": "function"
    },
    {
      "constant": true,
      "inputs": [
        {
          "internalType": "uint256",
          "name": "",
          "type": "uint256"
        }
      ],
      "name": "PatientToOwner",
      "outputs": [
        {
          "internalType": "address",
          "name": "",
          "type": "address"
        }
      ],
      "payable": false,
      "stateMutability": "view",
      "type": "function"
    },
    {
      "constant": true,
      "inputs": [
        {
          "internalType": "uint256",
          "name": "",
          "type": "uint256"
        }
      ],
      "name": "PatientToSick",
      "outputs": [
        {
          "internalType": "uint256",
          "name": "",
          "type": "uint256"
        }
      ],
      "payable": false,
      "stateMutability": "view",
      "type": "function"
    },
    {
      "constant": true,
      "inputs": [],
      "name": "_countSick",
      "outputs": [
        {
          "internalType": "uint256",
          "name": "",
          "type": "uint256"
        }
      ],
      "payable": false,
      "stateMutability": "view",
      "type": "function"
    },
    {
      "constant": false,
      "inputs": [
        {
          "internalType": "string",
          "name": "_name",
          "type": "string"
        },
        {
          "internalType": "uint256",
          "name": "_sickCode",
          "type": "uint256"
        }
      ],
      "name": "_createSick",
      "outputs": [],
      "payable": false,
      "stateMutability": "nonpayable",
      "type": "function"
    },
    {
      "constant": false,
      "inputs": [
        {
          "internalType": "uint256",
          "name": "_patientId",
          "type": "uint256"
        },
        {
          "internalType": "uint256",
          "name": "_sickCode",
          "type": "uint256"
        }
      ],
      "name": "_setPatientSick",
      "outputs": [],
      "payable": false,
      "stateMutability": "nonpayable",
      "type": "function"
    },
    {
      "constant": false,
      "inputs": [
        {
          "internalType": "address",
          "name": "_from",
          "type": "address"
        },
        {
          "internalType": "address",
          "name": "_to",
          "type": "address"
        },
        {
          "internalType": "uint256",
          "name": "_tokenId",
          "type": "uint256"
        }
      ],
      "name": "_transfer",
      "outputs": [],
      "payable": false,
      "stateMutability": "nonpayable",
      "type": "function"
    },
    {
      "constant": true,
      "inputs": [
        {
          "internalType": "address",
          "name": "_owner",
          "type": "address"
        }
      ],
      "name": "countPatient",
      "outputs": [
        {
          "internalType": "uint256",
          "name": "",
          "type": "uint256"
        }
      ],
      "payable": false,
      "stateMutability": "view",
      "type": "function"
    },
    {
      "constant": true,
      "inputs": [],
      "name": "countSickCode",
      "outputs": [
        {
          "internalType": "uint256",
          "name": "",
          "type": "uint256"
        }
      ],
      "payable": false,
      "stateMutability": "view",
      "type": "function"
    },
    {
      "constant": true,
      "inputs": [
        {
          "internalType": "address",
          "name": "_owner",
          "type": "address"
        }
      ],
      "name": "getPatientByOwner",
      "outputs": [
        {
          "internalType": "uint256[]",
          "name": "",
          "type": "uint256[]"
        }
      ],
      "payable": false,
      "stateMutability": "view",
      "type": "function"
    },
    {
      "constant": true,
      "inputs": [],
      "name": "getSender",
      "outputs": [
        {
          "internalType": "address",
          "name": "",
          "type": "address"
        }
      ],
      "payable": false,
      "stateMutability": "view",
      "type": "function"
    },
    {
      "constant": true,
      "inputs": [
        {
          "internalType": "uint256",
          "name": "",
          "type": "uint256"
        }
      ],
      "name": "medicalExaminations",
      "outputs": [
        {
          "internalType": "uint256",
          "name": "readyTime",
          "type": "uint256"
        },
        {
          "internalType": "string",
          "name": "diagnostic",
          "type": "string"
        }
      ],
      "payable": false,
      "stateMutability": "view",
      "type": "function"
    },
    {
      "constant": true,
      "inputs": [
        {
          "internalType": "uint256",
          "name": "",
          "type": "uint256"
        }
      ],
      "name": "medicalrecords",
      "outputs": [
        {
          "internalType": "uint256",
          "name": "idpatient",
          "type": "uint256"
        },
        {
          "internalType": "uint256",
          "name": "sickcode",
          "type": "uint256"
        },
        {
          "internalType": "uint256",
          "name": "readyTime",
          "type": "uint256"
        },
        {
          "internalType": "uint256",
          "name": "MedicalExaminationCount",
          "type": "uint256"
        }
      ],
      "payable": false,
      "stateMutability": "view",
      "type": "function"
    },
    {
      "constant": true,
      "inputs": [],
      "name": "owner",
      "outputs": [
        {
          "internalType": "address",
          "name": "",
          "type": "address"
        }
      ],
      "payable": false,
      "stateMutability": "view",
      "type": "function"
    },
    {
      "constant": true,
      "inputs": [
        {
          "internalType": "uint256",
          "name": "",
          "type": "uint256"
        }
      ],
      "name": "patients",
      "outputs": [
        {
          "internalType": "uint256",
          "name": "patientId",
          "type": "uint256"
        },
        {
          "internalType": "string",
          "name": "name",
          "type": "string"
        },
        {
          "internalType": "string",
          "name": "cmt",
          "type": "string"
        },
        {
          "internalType": "uint256",
          "name": "age",
          "type": "uint256"
        },
        {
          "internalType": "uint256",
          "name": "sex",
          "type": "uint256"
        },
        {
          "internalType": "bool",
          "name": "living",
          "type": "bool"
        }
      ],
      "payable": false,
      "stateMutability": "view",
      "type": "function"
    },
    {
      "constant": false,
      "inputs": [],
      "name": "renounceOwnership",
      "outputs": [],
      "payable": false,
      "stateMutability": "nonpayable",
      "type": "function"
    },
    {
      "constant": true,
      "inputs": [
        {
          "internalType": "uint256",
          "name": "",
          "type": "uint256"
        }
      ],
      "name": "sickcodes",
      "outputs": [
        {
          "internalType": "uint256",
          "name": "idpatient",
          "type": "uint256"
        }
      ],
      "payable": false,
      "stateMutability": "view",
      "type": "function"
    },
    {
      "constant": true,
      "inputs": [
        {
          "internalType": "uint256",
          "name": "",
          "type": "uint256"
        }
      ],
      "name": "sicks",
      "outputs": [
        {
          "internalType": "string",
          "name": "name",
          "type": "string"
        },
        {
          "internalType": "uint256",
          "name": "sickCode",
          "type": "uint256"
        }
      ],
      "payable": false,
      "stateMutability": "view",
      "type": "function"
    },
    {
      "constant": false,
      "inputs": [
        {
          "internalType": "address",
          "name": "_from",
          "type": "address"
        },
        {
          "internalType": "address",
          "name": "_to",
          "type": "address"
        },
        {
          "internalType": "uint256",
          "name": "_tokenId",
          "type": "uint256"
        }
      ],
      "name": "transferFrom",
      "outputs": [],
      "payable": false,
      "stateMutability": "nonpayable",
      "type": "function"
    },
    {
      "constant": false,
      "inputs": [
        {
          "internalType": "address",
          "name": "_newOwner",
          "type": "address"
        }
      ],
      "name": "transferOwnership",
      "outputs": [],
      "payable": false,
      "stateMutability": "nonpayable",
      "type": "function"
    },
    {
      "constant": true,
      "inputs": [
        {
          "internalType": "uint256",
          "name": "_patientId",
          "type": "uint256"
        }
      ],
      "name": "viewSickCode",
      "outputs": [
        {
          "internalType": "uint256[]",
          "name": "",
          "type": "uint256[]"
        }
      ],
      "payable": false,
      "stateMutability": "view",
      "type": "function"
    },
    {
      "constant": false,
      "inputs": [
        {
          "internalType": "uint256",
          "name": "_patientId",
          "type": "uint256"
        },
        {
          "internalType": "uint256",
          "name": "_sickCode",
          "type": "uint256"
        }
      ],
      "name": "_createMedicalRecord",
      "outputs": [],
      "payable": false,
      "stateMutability": "nonpayable",
      "type": "function"
    },
    {
      "constant": false,
      "inputs": [
        {
          "internalType": "uint256",
          "name": "_patientId",
          "type": "uint256"
        },
        {
          "internalType": "uint256",
          "name": "_sickCode",
          "type": "uint256"
        },
        {
          "internalType": "string",
          "name": "_diagnostic",
          "type": "string"
        }
      ],
      "name": "RecordMedical",
      "outputs": [],
      "payable": false,
      "stateMutability": "nonpayable",
      "type": "function"
    },
    {
      "constant": false,
      "inputs": [
        {
          "internalType": "uint256",
          "name": "_patientId",
          "type": "uint256"
        },
        {
          "internalType": "uint256",
          "name": "_sickCode",
          "type": "uint256"
        }
      ],
      "name": "_checkMedicalRecordInitializated",
      "outputs": [
        {
          "internalType": "uint256",
          "name": "",
          "type": "uint256"
        }
      ],
      "payable": false,
      "stateMutability": "nonpayable",
      "type": "function"
    },
    {
      "constant": true,
      "inputs": [
        {
          "internalType": "uint256",
          "name": "_patientId",
          "type": "uint256"
        },
        {
          "internalType": "uint256",
          "name": "_sickCode",
          "type": "uint256"
        }
      ],
      "name": "getRecordMedical",
      "outputs": [
        {
          "internalType": "uint256[]",
          "name": "",
          "type": "uint256[]"
        }
      ],
      "payable": false,
      "stateMutability": "view",
      "type": "function"
    },
    {
      "constant": false,
      "inputs": [
        {
          "internalType": "string",
          "name": "_name",
          "type": "string"
        },
        {
          "internalType": "string",
          "name": "_cmt",
          "type": "string"
        },
        {
          "internalType": "uint256",
          "name": "_age",
          "type": "uint256"
        },
        {
          "internalType": "uint256",
          "name": "_sex",
          "type": "uint256"
        }
      ],
      "name": "CreatePatient",
      "outputs": [],
      "payable": false,
      "stateMutability": "nonpayable",
      "type": "function"
    }
  ],
  "bytecode": "0x6080604052336000806101000a81548173ffffffffffffffffffffffffffffffffffffffff021916908373ffffffffffffffffffffffffffffffffffffffff16021790555061260e806100536000396000f3fe608060405234801561001057600080fd5b50600436106101c45760003560e01c80638b215cd1116100f9578063c2003a0011610097578063f2fde38b11610071578063f2fde38b14610ced578063f54d4b1114610d31578063fbabb2cd14610db4578063fc137c4b14610e0c576101c4565b8063c2003a0014610b23578063d472c11514610be8578063dfabd2a214610c3f576101c4565b806393119a83116100d357806393119a8314610958578063a61a46b314610a8b578063add063e614610ac3578063c0a5a06714610b05576101c4565b80638b215cd1146108825780638da5cb5b146108a057806392f952fe146108ea576101c4565b80635e01eb5a11610166578063715018a611610140578063715018a614610595578063733b17bd1461059f5780637ecb80c41461064d5780638836580f1461071c576101c4565b80635e01eb5a146104665780635fa3a960146104b0578063657cd5591461053d576101c4565b806330e0789e116101a257806330e0789e146102d15780633661319e1461033f57806342479f69146103815780634baa96cc146103cd576101c4565b806312e7cb8c146101c957806323b872dd1461020b5780632e196a9614610279575b600080fd5b6101f5600480360360208110156101df57600080fd5b8101908080359060200190929190505050610e44565b6040518082815260200191505060405180910390f35b6102776004803603606081101561022157600080fd5b81019080803573ffffffffffffffffffffffffffffffffffffffff169060200190929190803573ffffffffffffffffffffffffffffffffffffffff16906020019092919080359060200190929190505050610e5c565b005b6102bb6004803603602081101561028f57600080fd5b81019080803573ffffffffffffffffffffffffffffffffffffffff169060200190929190505050610ed7565b6040518082815260200191505060405180910390f35b61033d600480360360608110156102e757600080fd5b81019080803573ffffffffffffffffffffffffffffffffffffffff169060200190929190803573ffffffffffffffffffffffffffffffffffffffff16906020019092919080359060200190929190505050610eef565b005b61036b6004803603602081101561035557600080fd5b8101908080359060200190929190505050611111565b6040518082815260200191505060405180910390f35b6103b76004803603604081101561039757600080fd5b8101908080359060200190929190803590602001909291905050506111f6565b6040518082815260200191505060405180910390f35b61040f600480360360208110156103e357600080fd5b81019080803573ffffffffffffffffffffffffffffffffffffffff16906020019092919050505061128d565b6040518080602001828103825283818151815260200191508051906020019060200280838360005b83811015610452578082015181840152602081019050610437565b505050509050019250505060405180910390f35b61046e6113b7565b604051808273ffffffffffffffffffffffffffffffffffffffff1673ffffffffffffffffffffffffffffffffffffffff16815260200191505060405180910390f35b6104e6600480360360408110156104c657600080fd5b8101908080359060200190929190803590602001909291905050506113bf565b6040518080602001828103825283818151815260200191508051906020019060200280838360005b8381101561052957808201518184015260208101905061050e565b505050509050019250505060405180910390f35b61057f6004803603602081101561055357600080fd5b81019080803573ffffffffffffffffffffffffffffffffffffffff169060200190929190505050611588565b6040518082815260200191505060405180910390f35b61059d6115d1565b005b6105cb600480360360208110156105b557600080fd5b81019080803590602001909291905050506116d1565b6040518080602001838152602001828103825284818151815260200191508051906020019080838360005b838110156106115780820151818401526020810190506105f6565b50505050905090810190601f16801561063e5780820380516001836020036101000a031916815260200191505b50935050505060405180910390f35b61071a6004803603606081101561066357600080fd5b8101908080359060200190929190803590602001909291908035906020019064010000000081111561069457600080fd5b8201836020820111156106a657600080fd5b803590602001918460018302840111640100000000831117156106c857600080fd5b91908080601f016020809104026020016040519081016040528093929190818152602001838380828437600081840152601f19601f82011690508083019250505050505050919291929050505061179a565b005b6108806004803603608081101561073257600080fd5b810190808035906020019064010000000081111561074f57600080fd5b82018360208201111561076157600080fd5b8035906020019184600183028401116401000000008311171561078357600080fd5b91908080601f016020809104026020016040519081016040528093929190818152602001838380828437600081840152601f19601f820116905080830192505050505050509192919290803590602001906401000000008111156107e657600080fd5b8201836020820111156107f857600080fd5b8035906020019184600183028401116401000000008311171561081a57600080fd5b91908080601f016020809104026020016040519081016040528093929190818152602001838380828437600081840152601f19601f82011690508083019250505050505050919291929080359060200190929190803590602001909291905050506118da565b005b61088a611ba3565b6040518082815260200191505060405180910390f35b6108a8611bb0565b604051808273ffffffffffffffffffffffffffffffffffffffff1673ffffffffffffffffffffffffffffffffffffffff16815260200191505060405180910390f35b6109166004803603602081101561090057600080fd5b8101908080359060200190929190505050611bd5565b604051808273ffffffffffffffffffffffffffffffffffffffff1673ffffffffffffffffffffffffffffffffffffffff16815260200191505060405180910390f35b6109846004803603602081101561096e57600080fd5b8101908080359060200190929190505050611c08565b60405180878152602001806020018060200186815260200185815260200184151515158152602001838103835288818151815260200191508051906020019080838360005b838110156109e45780820151818401526020810190506109c9565b50505050905090810190601f168015610a115780820380516001836020036101000a031916815260200191505b50838103825287818151815260200191508051906020019080838360005b83811015610a4a578082015181840152602081019050610a2f565b50505050905090810190601f168015610a775780820380516001836020036101000a031916815260200191505b509850505050505050505060405180910390f35b610ac160048036036040811015610aa157600080fd5b810190808035906020019092919080359060200190929190505050611d8e565b005b610aef60048036036020811015610ad957600080fd5b8101908080359060200190929190505050611eec565b6040518082815260200191505060405180910390f35b610b0d611f17565b6040518082815260200191505060405180910390f35b610be660048036036040811015610b3957600080fd5b8101908080359060200190640100000000811115610b5657600080fd5b820183602082011115610b6857600080fd5b80359060200191846001830284011164010000000083111715610b8a57600080fd5b91908080601f016020809104026020016040519081016040528093929190818152602001838380828437600081840152601f19601f82011690508083019250505050505050919291929080359060200190929190505050611f24565b005b610c1460048036036020811015610bfe57600080fd5b81019080803590602001909291905050506120a0565b6040518085815260200184815260200183815260200182815260200194505050505060405180910390f35b610c6b60048036036020811015610c5557600080fd5b81019080803590602001909291905050506120dd565b6040518083815260200180602001828103825283818151815260200191508051906020019080838360005b83811015610cb1578082015181840152602081019050610c96565b50505050905090810190601f168015610cde5780820380516001836020036101000a031916815260200191505b50935050505060405180910390f35b610d2f60048036036020811015610d0357600080fd5b81019080803573ffffffffffffffffffffffffffffffffffffffff1690602001909291905050506121a6565b005b610d5d60048036036020811015610d4757600080fd5b810190808035906020019092919050505061220b565b6040518080602001828103825283818151815260200191508051906020019060200280838360005b83811015610da0578082015181840152602081019050610d85565b505050509050019250505060405180910390f35b610df660048036036020811015610dca57600080fd5b81019080803573ffffffffffffffffffffffffffffffffffffffff16906020019092919050505061229a565b6040518082815260200191505060405180910390f35b610e4260048036036040811015610e2257600080fd5b8101908080359060200190929190803590602001909291905050506122b2565b005b60076020528060005260406000206000915090505481565b3373ffffffffffffffffffffffffffffffffffffffff166004600083815260200190815260200160002060009054906101000a900473ffffffffffffffffffffffffffffffffffffffff1673ffffffffffffffffffffffffffffffffffffffff1614610ec757600080fd5b610ed2838383610eef565b505050565b60026020528060005260406000206000915090505481565b610f426001600360008573ffffffffffffffffffffffffffffffffffffffff1673ffffffffffffffffffffffffffffffffffffffff168152602001908152602001600020546123a390919063ffffffff16565b600360008473ffffffffffffffffffffffffffffffffffffffff1673ffffffffffffffffffffffffffffffffffffffff16815260200190815260200160002081905550610fd86001600360003373ffffffffffffffffffffffffffffffffffffffff1673ffffffffffffffffffffffffffffffffffffffff168152602001908152602001600020546123bd90919063ffffffff16565b600360003373ffffffffffffffffffffffffffffffffffffffff1673ffffffffffffffffffffffffffffffffffffffff16815260200190815260200160002081905550816004600083815260200190815260200160002060006101000a81548173ffffffffffffffffffffffffffffffffffffffff021916908373ffffffffffffffffffffffffffffffffffffffff1602179055507fddf252ad1be2c89b69c2b068fc378daa952ba7f163c4a11628f55a4df523b3ef838383604051808473ffffffffffffffffffffffffffffffffffffffff1673ffffffffffffffffffffffffffffffffffffffff1681526020018373ffffffffffffffffffffffffffffffffffffffff1673ffffffffffffffffffffffffffffffffffffffff168152602001828152602001935050505060405180910390a1505050565b6000805b60068054905081101561115e57826006828154811061113057fe5b906000526020600020906002020160000154141561115157809150506111f1565b8080600101915050611115565b506060600060016006604051806040016040528087815260200185815250908060018154018082558091505090600182039060005260206000209060020201600090919290919091506000820151816000015560208201518160010190805190602001906111cd9291906124e7565b50505003905080600760008681526020019081526020016000208190555080925050505b919050565b600080600090505b60098054905081101561127057836009828154811061121957fe5b9060005260206000209060040201600001541480156112555750826009828154811061124157fe5b906000526020600020906004020160010154145b156112635780915050611287565b80806001019150506111fe565b5061127b83836122b2565b60016009805490500390505b92915050565b606080600360008473ffffffffffffffffffffffffffffffffffffffff1673ffffffffffffffffffffffffffffffffffffffff168152602001908152602001600020546040519080825280602002602001820160405280156112fe5781602001602082028038833980820191505090505b509050600080905060005b6001805490508110156113ac578473ffffffffffffffffffffffffffffffffffffffff166004600083815260200190815260200160002060009054906101000a900473ffffffffffffffffffffffffffffffffffffffff1673ffffffffffffffffffffffffffffffffffffffff16141561139f578083838151811061138a57fe5b60200260200101818152505081806001019250505b8080600101915050611309565b508192505050919050565b600033905090565b60608282600080905060008090505b6009805490508110156114405783600982815481106113e957fe5b9060005260206000209060040201600001541480156114255750826009828154811061141157fe5b906000526020600020906004020160010154145b156114335781806001019250505b80806001019150506113ce565b506001811461144e57600080fd5b600080600090505b6009805490508110156114c357876009828154811061147157fe5b9060005260206000209060040201600001541480156114ad5750866009828154811061149957fe5b906000526020600020906004020160010154145b156114b6578091505b8080600101915050611456565b506060600982815481106114d357fe5b9060005260206000209060040201600301546040519080825280602002602001820160405280156115135781602001602082028038833980820191505090505b509050600080905060008090505b600a8054905081101561157857836008600083815260200190815260200160002054141561156b578083838151811061155657fe5b60200260200101818152505081806001019250505b8080600101915050611521565b5081965050505050505092915050565b6000600360008373ffffffffffffffffffffffffffffffffffffffff1673ffffffffffffffffffffffffffffffffffffffff168152602001908152602001600020549050919050565b6000809054906101000a900473ffffffffffffffffffffffffffffffffffffffff1673ffffffffffffffffffffffffffffffffffffffff163373ffffffffffffffffffffffffffffffffffffffff161461162a57600080fd5b6000809054906101000a900473ffffffffffffffffffffffffffffffffffffffff1673ffffffffffffffffffffffffffffffffffffffff167ff8df31144d9c2f0f6b59d69b8b98abd5459d07f2742c4df920b25aae33c6482060405160405180910390a260008060006101000a81548173ffffffffffffffffffffffffffffffffffffffff021916908373ffffffffffffffffffffffffffffffffffffffff160217905550565b600581815481106116de57fe5b9060005260206000209060020201600091509050806000018054600181600116156101000203166002900480601f01602080910402602001604051908101604052809291908181526020018280546001816001161561010002031660029004801561178a5780601f1061175f5761010080835404028352916020019161178a565b820191906000526020600020905b81548152906001019060200180831161176d57829003601f168201915b5050505050908060010154905082565b826004600082815260200190815260200160002060009054906101000a900473ffffffffffffffffffffffffffffffffffffffff1673ffffffffffffffffffffffffffffffffffffffff163373ffffffffffffffffffffffffffffffffffffffff161461180657600080fd5b600061181285856111f6565b9050600042905060006001600a60405180604001604052808581526020018881525090806001815401808255809150509060018203906000526020600020906002020160009091929091909150600082015181600001556020820151816001019080519060200190611885929190612534565b5050500390506009838154811061189857fe5b90600052602060002090600402016003016000815480929190600101919050555082600860008381526020019081526020016000208190555050505050505050565b6000600180549050905060006001806040518060c00160405280858152602001898152602001888152602001878152602001868152602001600115158152509080600181540180825580915050906001820390600052602060002090600602016000909192909190915060008201518160000155602082015181600101908051906020019061196a929190612534565b506040820151816002019080519060200190611987929190612534565b50606082015181600301556080820151816004015560a08201518160050160006101000a81548160ff0219169083151502179055505050039050336004600083815260200190815260200160002060006101000a81548173ffffffffffffffffffffffffffffffffffffffff021916908373ffffffffffffffffffffffffffffffffffffffff160217905550611a1e816000611d8e565b600360003373ffffffffffffffffffffffffffffffffffffffff1673ffffffffffffffffffffffffffffffffffffffff168152602001908152602001600020600081548092919060010191905055507f557bf9091e5e17797594eb1f2a2ed64dbbbbfd9dc4ec21bfe6a35959540cd9a68187878787600160405180878152602001806020018060200186815260200185815260200184151515158152602001838103835288818151815260200191508051906020019080838360005b83811015611af5578082015181840152602081019050611ada565b50505050905090810190601f168015611b225780820380516001836020036101000a031916815260200191505b50838103825287818151815260200191508051906020019080838360005b83811015611b5b578082015181840152602081019050611b40565b50505050905090810190601f168015611b885780820380516001836020036101000a031916815260200191505b509850505050505050505060405180910390a1505050505050565b6000600580549050905090565b6000809054906101000a900473ffffffffffffffffffffffffffffffffffffffff1681565b60046020528060005260406000206000915054906101000a900473ffffffffffffffffffffffffffffffffffffffff1681565b60018181548110611c1557fe5b9060005260206000209060060201600091509050806000015490806001018054600181600116156101000203166002900480601f016020809104026020016040519081016040528092919081815260200182805460018160011615610100020316600290048015611cc75780601f10611c9c57610100808354040283529160200191611cc7565b820191906000526020600020905b815481529060010190602001808311611caa57829003601f168201915b505050505090806002018054600181600116156101000203166002900480601f016020809104026020016040519081016040528092919081815260200182805460018160011615610100020316600290048015611d655780601f10611d3a57610100808354040283529160200191611d65565b820191906000526020600020905b815481529060010190602001808311611d4857829003601f168201915b5050505050908060030154908060040154908060050160009054906101000a900460ff16905086565b816004600082815260200190815260200160002060009054906101000a900473ffffffffffffffffffffffffffffffffffffffff1673ffffffffffffffffffffffffffffffffffffffff163373ffffffffffffffffffffffffffffffffffffffff1614611dfa57600080fd5b81600080905060008090505b600580549050811015611e4f578260058281548110611e2157fe5b9060005260206000209060020201600101541415611e425781806001019250505b8080600101915050611e06565b5060018114611e5d57600080fd5b600060018681548110611e6c57fe5b90600052602060002090600602019050611e85816123d4565b611e8e57600080fd5b6000611e9987611111565b905060068181548110611ea857fe5b906000526020600020906002020160010186908060018154018082558091505090600182039060005260206000200160009091929091909150555050505050505050565b60068181548110611ef957fe5b90600052602060002090600202016000915090508060000154905081565b6000600680549050905090565b6000809054906101000a900473ffffffffffffffffffffffffffffffffffffffff1673ffffffffffffffffffffffffffffffffffffffff163373ffffffffffffffffffffffffffffffffffffffff1614611f7d57600080fd5b600060016005604051806040016040528086815260200185815250908060018154018082558091505090600182039060005260206000209060020201600090919290919091506000820151816000019080519060200190611fdf929190612534565b506020820151816001015550500390507f92062fc2c4762cb106802cc2c6da83d475d7570034c04db9347b05eb45e43c708184846040518084815260200180602001838152602001828103825284818151815260200191508051906020019080838360005b8381101561205f578082015181840152602081019050612044565b50505050905090810190601f16801561208c5780820380516001836020036101000a031916815260200191505b5094505050505060405180910390a1505050565b600981815481106120ad57fe5b90600052602060002090600402016000915090508060000154908060010154908060020154908060030154905084565b600a81815481106120ea57fe5b9060005260206000209060020201600091509050806000015490806001018054600181600116156101000203166002900480601f01602080910402602001604051908101604052809291908181526020018280546001816001161561010002031660029004801561219c5780601f106121715761010080835404028352916020019161219c565b820191906000526020600020905b81548152906001019060200180831161217f57829003601f168201915b5050505050905082565b6000809054906101000a900473ffffffffffffffffffffffffffffffffffffffff1673ffffffffffffffffffffffffffffffffffffffff163373ffffffffffffffffffffffffffffffffffffffff16146121ff57600080fd5b612208816123ef565b50565b60606000600760008481526020019081526020016000205490506006818154811061223257fe5b906000526020600020906002020160010180548060200260200160405190810160405280929190818152602001828054801561228d57602002820191906000526020600020905b815481526020019060010190808311612279575b5050505050915050919050565b60036020528060005260406000206000915090505481565b816004600082815260200190815260200160002060009054906101000a900473ffffffffffffffffffffffffffffffffffffffff1673ffffffffffffffffffffffffffffffffffffffff163373ffffffffffffffffffffffffffffffffffffffff161461231e57600080fd5b6000429050600960405180608001604052808681526020018581526020018381526020016000815250908060018154018082558091505090600182039060005260206000209060040201600090919290919091506000820151816000015560208201518160010155604082015181600201556060820151816003015550505050505050565b60008183019050828110156123b457fe5b80905092915050565b6000828211156123c957fe5b818303905092915050565b60008160050160009054906101000a900460ff169050919050565b600073ffffffffffffffffffffffffffffffffffffffff168173ffffffffffffffffffffffffffffffffffffffff16141561242957600080fd5b8073ffffffffffffffffffffffffffffffffffffffff166000809054906101000a900473ffffffffffffffffffffffffffffffffffffffff1673ffffffffffffffffffffffffffffffffffffffff167f8be0079c531659141344cd1fd0a4f28419497f9722a3daafe3b4186f6b6457e060405160405180910390a3806000806101000a81548173ffffffffffffffffffffffffffffffffffffffff021916908373ffffffffffffffffffffffffffffffffffffffff16021790555050565b828054828255906000526020600020908101928215612523579160200282015b82811115612522578251825591602001919060010190612507565b5b50905061253091906125b4565b5090565b828054600181600116156101000203166002900490600052602060002090601f016020900481019282601f1061257557805160ff19168380011785556125a3565b828001600101855582156125a3579182015b828111156125a2578251825591602001919060010190612587565b5b5090506125b091906125b4565b5090565b6125d691905b808211156125d25760008160009055506001016125ba565b5090565b9056fea265627a7a72315820a987d1f1525287a3da3a8fa421a31c668a22590338e87396c7a4a595b9b2fc0764736f6c63430005100032",
  "source": "pragma solidity >=0.4.21 <0.7.0;\nimport \"./SetSick.sol\";\n\n/**\n * The MedicalRecord contract does this and that...\n */\ncontract Medical is SetSick {\n    event Transfer(address _from, address _to, uint256 _tokenId);\n\n    struct MedicalRecord {\n        // h s bnh n\n        uint256 idpatient;\n        uint256 sickcode; //id patient\n        uint256 readyTime;\n        uint256 MedicalExaminationCount; // s bn ghi record\n    }\n\n    struct MedicalExamination {\n        // luu du data patient theo lich su kham benh\n        uint256 readyTime;\n        string diagnostic;\n    }\n\n    mapping(uint256 => uint256) RecordMedicalExaminations; // medicalExaminations=>medicalrecords;\n\n    MedicalRecord[] public medicalrecords;\n    MedicalExamination[] public medicalExaminations;\n\n    modifier MedicalRecordCreated(uint256 _patientId, uint256 _sickCode) {\n        uint256 _count = 0;\n        for (uint256 i = 0; i < medicalrecords.length; i++) {\n            if (\n                medicalrecords[i].idpatient == _patientId &&\n                medicalrecords[i].sickcode == _sickCode\n            ) {\n                _count++;\n            }\n        }\n        require(_count == 1);\n        _;\n    }\n\n    function _createMedicalRecord(uint256 _patientId, uint256 _sickCode)\n        public\n        onlyOwnerOf(_patientId)\n    {\n        uint256 readyTime1 = uint256(now);\n        medicalrecords.push(\n            MedicalRecord({\n                idpatient: _patientId,\n                sickcode: _sickCode,\n                readyTime: readyTime1,\n                MedicalExaminationCount: 0\n            })\n        );\n    }\n\n    function RecordMedical(\n        uint256 _patientId,\n        uint256 _sickCode,\n        string memory _diagnostic\n    ) public onlyOwnerOf(_patientId) {\n        // luu du data kham benh\n        uint256 idMedicalRecord = _checkMedicalRecordInitializated(\n            _patientId,\n            _sickCode\n        );\n        uint256 readyTime = uint256(now);\n        uint256 idmedicalExamination = medicalExaminations.push(\n            MedicalExamination(readyTime, _diagnostic)\n        ) -\n            1;\n        medicalrecords[idMedicalRecord].MedicalExaminationCount++;\n        RecordMedicalExaminations[idmedicalExamination] = idMedicalRecord;\n    }\n\n    function _checkMedicalRecordInitializated(\n        uint256 _patientId,\n        uint256 _sickCode\n    ) public returns (uint256) {\n        //kim tra h s bnh nhn vs bnh ny  c to cha .\n        for (uint256 i = 0; i < medicalrecords.length; i++) {\n            if (\n                medicalrecords[i].idpatient == _patientId &&\n                medicalrecords[i].sickcode == _sickCode\n            ) {\n                return i;\n            }\n        }\n\n        _createMedicalRecord(_patientId, _sickCode);\n        return medicalrecords.length - 1;\n\n    }\n\n    function getRecordMedical(uint256 _patientId, uint256 _sickCode)\n        public\n        view\n        MedicalRecordCreated(_patientId, _sickCode)\n        returns (uint256[] memory)\n    {\n        uint256 _idMedicalRecord;\n        for (uint256 i = 0; i < medicalrecords.length; i++) {\n            if (\n                medicalrecords[i].idpatient == _patientId &&\n                medicalrecords[i].sickcode == _sickCode\n            ) {\n                _idMedicalRecord = i;\n            }\n        }\n        uint256[] memory result = new uint256[](\n            medicalrecords[_idMedicalRecord].MedicalExaminationCount\n        );\n        uint256 counter = 0;\n        for (uint256 j = 0; j < medicalExaminations.length; j++) {\n            if (RecordMedicalExaminations[j] == _idMedicalRecord) {\n                result[counter] = j;\n                counter++;\n            }\n        }\n        return result;\n\n    }\n    function CreatePatient(\n        string memory _name,\n        string memory _cmt,\n        uint256 _age,\n        uint256 _sex\n    ) public {\n        //khai bao lai CreatePatient ke thua tu patientcontract\n        uint256 patientId = patients.length;\n        uint256 id = patients.push(\n            Patient(patientId, _name, _cmt, _age, _sex, true)\n        ) -\n            1;\n        PatientToOwner[id] = msg.sender;\n        _setPatientSick(id, 0);\n        OwnerPatientCount[msg.sender]++;\n        emit NewPatient(id, _name, _cmt, _age, _sex, true);\n\n    }\n\n}\n",
  "sourcePath": "/home/thanhvg/thanh/PatientSC/contracts/Medical.sol",
  "compiler": {
    "name": "solc",
    "version": "0.5.16+commit.9c3226ce.Emscripten.clang"
  },
  "schemaVersion": "3.0.23",
  "updatedAt": "2020-05-13T14:00:39.766Z",
  "networkType": "ethereum",
  "devdoc": {
    "methods": {
      "renounceOwnership()": {
        "details": "Allows the current owner to relinquish control of the contract."
      },
      "transferOwnership(address)": {
        "details": "Allows the current owner to transfer control of the contract to a newOwner.",
        "params": {
          "_newOwner": "The address to transfer ownership to."
        }
      }
    }
  },
  "userdoc": {
    "methods": {
      "renounceOwnership()": {
        "notice": "Renouncing to ownership will leave the contract without an owner. It will not be possible to call the functions with the `onlyOwner` modifier anymore."
      }
    },
    "notice": "The MedicalRecord contract does this and that..."
  }
}