{
  "contractName": "SetSick",
  "abi": [
    {
      "anonymous": false,
      "inputs": [
        {
          "indexed": false,
          "internalType": "uint256",
          "name": "patientId",
          "type": "uint256"
        },
        {
          "indexed": false,
          "internalType": "string",
          "name": "name",
          "type": "string"
        },
        {
          "indexed": false,
          "internalType": "string",
          "name": "cmt",
          "type": "string"
        },
        {
          "indexed": false,
          "internalType": "uint256",
          "name": "age",
          "type": "uint256"
        },
        {
          "indexed": false,
          "internalType": "uint256",
          "name": "sex",
          "type": "uint256"
        },
        {
          "indexed": false,
          "internalType": "bool",
          "name": "living",
          "type": "bool"
        }
      ],
      "name": "NewPatient",
      "type": "event"
    },
    {
      "anonymous": false,
      "inputs": [
        {
          "indexed": false,
          "internalType": "uint256",
          "name": "sickId",
          "type": "uint256"
        },
        {
          "indexed": false,
          "internalType": "string",
          "name": "name",
          "type": "string"
        },
        {
          "indexed": false,
          "internalType": "uint256",
          "name": "sickCode",
          "type": "uint256"
        }
      ],
      "name": "NewSick",
      "type": "event"
    },
    {
      "anonymous": false,
      "inputs": [
        {
          "indexed": true,
          "internalType": "address",
          "name": "previousOwner",
          "type": "address"
        }
      ],
      "name": "OwnershipRenounced",
      "type": "event"
    },
    {
      "anonymous": false,
      "inputs": [
        {
          "indexed": true,
          "internalType": "address",
          "name": "previousOwner",
          "type": "address"
        },
        {
          "indexed": true,
          "internalType": "address",
          "name": "newOwner",
          "type": "address"
        }
      ],
      "name": "OwnershipTransferred",
      "type": "event"
    },
    {
      "anonymous": false,
      "inputs": [
        {
          "indexed": false,
          "internalType": "address",
          "name": "_from",
          "type": "address"
        },
        {
          "indexed": false,
          "internalType": "address",
          "name": "_to",
          "type": "address"
        },
        {
          "indexed": false,
          "internalType": "uint256",
          "name": "_tokenId",
          "type": "uint256"
        }
      ],
      "name": "Transfer",
      "type": "event"
    },
    {
      "constant": false,
      "inputs": [
        {
          "internalType": "string",
          "name": "_name",
          "type": "string"
        },
        {
          "internalType": "string",
          "name": "_cmt",
          "type": "string"
        },
        {
          "internalType": "uint256",
          "name": "_age",
          "type": "uint256"
        },
        {
          "internalType": "uint256",
          "name": "_sex",
          "type": "uint256"
        }
      ],
      "name": "CreatePatient",
      "outputs": [],
      "payable": false,
      "stateMutability": "nonpayable",
      "type": "function"
    },
    {
      "constant": true,
      "inputs": [
        {
          "internalType": "address",
          "name": "",
          "type": "address"
        }
      ],
      "name": "OwnerPatientCount",
      "outputs": [
        {
          "internalType": "uint256",
          "name": "",
          "type": "uint256"
        }
      ],
      "payable": false,
      "stateMutability": "view",
      "type": "function"
    },
    {
      "constant": true,
      "inputs": [
        {
          "internalType": "address",
          "name": "",
          "type": "address"
        }
      ],
      "name": "OwnerToPatient",
      "outputs": [
        {
          "internalType": "uint256",
          "name": "",
          "type": "uint256"
        }
      ],
      "payable": false,
      "stateMutability": "view",
      "type": "function"
    },
    {
      "constant": true,
      "inputs": [
        {
          "internalType": "uint256",
          "name": "",
          "type": "uint256"
        }
      ],
      "name": "PatientToOwner",
      "outputs": [
        {
          "internalType": "address",
          "name": "",
          "type": "address"
        }
      ],
      "payable": false,
      "stateMutability": "view",
      "type": "function"
    },
    {
      "constant": true,
      "inputs": [
        {
          "internalType": "uint256",
          "name": "",
          "type": "uint256"
        }
      ],
      "name": "PatientToSick",
      "outputs": [
        {
          "internalType": "uint256",
          "name": "",
          "type": "uint256"
        }
      ],
      "payable": false,
      "stateMutability": "view",
      "type": "function"
    },
    {
      "constant": true,
      "inputs": [],
      "name": "_countSick",
      "outputs": [
        {
          "internalType": "uint256",
          "name": "",
          "type": "uint256"
        }
      ],
      "payable": false,
      "stateMutability": "view",
      "type": "function"
    },
    {
      "constant": false,
      "inputs": [
        {
          "internalType": "string",
          "name": "_name",
          "type": "string"
        },
        {
          "internalType": "uint256",
          "name": "_sickCode",
          "type": "uint256"
        }
      ],
      "name": "_createSick",
      "outputs": [],
      "payable": false,
      "stateMutability": "nonpayable",
      "type": "function"
    },
    {
      "constant": false,
      "inputs": [
        {
          "internalType": "address",
          "name": "_from",
          "type": "address"
        },
        {
          "internalType": "address",
          "name": "_to",
          "type": "address"
        },
        {
          "internalType": "uint256",
          "name": "_tokenId",
          "type": "uint256"
        }
      ],
      "name": "_transfer",
      "outputs": [],
      "payable": false,
      "stateMutability": "nonpayable",
      "type": "function"
    },
    {
      "constant": true,
      "inputs": [
        {
          "internalType": "address",
          "name": "_owner",
          "type": "address"
        }
      ],
      "name": "countPatient",
      "outputs": [
        {
          "internalType": "uint256",
          "name": "",
          "type": "uint256"
        }
      ],
      "payable": false,
      "stateMutability": "view",
      "type": "function"
    },
    {
      "constant": true,
      "inputs": [
        {
          "internalType": "address",
          "name": "_owner",
          "type": "address"
        }
      ],
      "name": "getPatientByOwner",
      "outputs": [
        {
          "internalType": "uint256[]",
          "name": "",
          "type": "uint256[]"
        }
      ],
      "payable": false,
      "stateMutability": "view",
      "type": "function"
    },
    {
      "constant": true,
      "inputs": [],
      "name": "getSender",
      "outputs": [
        {
          "internalType": "address",
          "name": "",
          "type": "address"
        }
      ],
      "payable": false,
      "stateMutability": "view",
      "type": "function"
    },
    {
      "constant": true,
      "inputs": [],
      "name": "owner",
      "outputs": [
        {
          "internalType": "address",
          "name": "",
          "type": "address"
        }
      ],
      "payable": false,
      "stateMutability": "view",
      "type": "function"
    },
    {
      "constant": true,
      "inputs": [
        {
          "internalType": "uint256",
          "name": "",
          "type": "uint256"
        }
      ],
      "name": "patients",
      "outputs": [
        {
          "internalType": "uint256",
          "name": "patientId",
          "type": "uint256"
        },
        {
          "internalType": "string",
          "name": "name",
          "type": "string"
        },
        {
          "internalType": "string",
          "name": "cmt",
          "type": "string"
        },
        {
          "internalType": "uint256",
          "name": "age",
          "type": "uint256"
        },
        {
          "internalType": "uint256",
          "name": "sex",
          "type": "uint256"
        },
        {
          "internalType": "bool",
          "name": "living",
          "type": "bool"
        }
      ],
      "payable": false,
      "stateMutability": "view",
      "type": "function"
    },
    {
      "constant": false,
      "inputs": [],
      "name": "renounceOwnership",
      "outputs": [],
      "payable": false,
      "stateMutability": "nonpayable",
      "type": "function"
    },
    {
      "constant": true,
      "inputs": [
        {
          "internalType": "uint256",
          "name": "",
          "type": "uint256"
        }
      ],
      "name": "sickcodes",
      "outputs": [
        {
          "internalType": "uint256",
          "name": "idpatient",
          "type": "uint256"
        }
      ],
      "payable": false,
      "stateMutability": "view",
      "type": "function"
    },
    {
      "constant": true,
      "inputs": [
        {
          "internalType": "uint256",
          "name": "",
          "type": "uint256"
        }
      ],
      "name": "sicks",
      "outputs": [
        {
          "internalType": "string",
          "name": "name",
          "type": "string"
        },
        {
          "internalType": "uint256",
          "name": "sickCode",
          "type": "uint256"
        }
      ],
      "payable": false,
      "stateMutability": "view",
      "type": "function"
    },
    {
      "constant": false,
      "inputs": [
        {
          "internalType": "address",
          "name": "_from",
          "type": "address"
        },
        {
          "internalType": "address",
          "name": "_to",
          "type": "address"
        },
        {
          "internalType": "uint256",
          "name": "_tokenId",
          "type": "uint256"
        }
      ],
      "name": "transferFrom",
      "outputs": [],
      "payable": false,
      "stateMutability": "nonpayable",
      "type": "function"
    },
    {
      "constant": false,
      "inputs": [
        {
          "internalType": "address",
          "name": "_newOwner",
          "type": "address"
        }
      ],
      "name": "transferOwnership",
      "outputs": [],
      "payable": false,
      "stateMutability": "nonpayable",
      "type": "function"
    },
    {
      "constant": false,
      "inputs": [
        {
          "internalType": "uint256",
          "name": "_patientId",
          "type": "uint256"
        },
        {
          "internalType": "uint256",
          "name": "_sickCode",
          "type": "uint256"
        }
      ],
      "name": "_setPatientSick",
      "outputs": [],
      "payable": false,
      "stateMutability": "nonpayable",
      "type": "function"
    },
    {
      "constant": true,
      "inputs": [
        {
          "internalType": "uint256",
          "name": "_patientId",
          "type": "uint256"
        }
      ],
      "name": "viewSickCode",
      "outputs": [
        {
          "internalType": "uint256[]",
          "name": "",
          "type": "uint256[]"
        }
      ],
      "payable": false,
      "stateMutability": "view",
      "type": "function"
    },
    {
      "constant": true,
      "inputs": [],
      "name": "countSickCode",
      "outputs": [
        {
          "internalType": "uint256",
          "name": "",
          "type": "uint256"
        }
      ],
      "payable": false,
      "stateMutability": "view",
      "type": "function"
    },
    {
      "constant": false,
      "inputs": [
        {
          "internalType": "uint256",
          "name": "_patientId",
          "type": "uint256"
        }
      ],
      "name": "PatientIdInSickCode",
      "outputs": [
        {
          "internalType": "uint256",
          "name": "",
          "type": "uint256"
        }
      ],
      "payable": false,
      "stateMutability": "nonpayable",
      "type": "function"
    }
  ],
  "bytecode": "0x6080604052336000806101000a81548173ffffffffffffffffffffffffffffffffffffffff021916908373ffffffffffffffffffffffffffffffffffffffff160217905550611d05806100536000396000f3fe608060405234801561001057600080fd5b50600436106101425760003560e01c80638b215cd1116100b8578063add063e61161007c578063add063e614610899578063c0a5a067146108db578063c2003a00146108f9578063f2fde38b146109be578063f54d4b1114610a02578063fbabb2cd14610a8557610142565b80638b215cd1146106585780638da5cb5b1461067657806392f952fe146106c057806393119a831461072e578063a61a46b31461086157610142565b80634baa96cc1161010a5780634baa96cc146102ff5780635e01eb5a14610398578063657cd559146103e2578063715018a61461043a578063733b17bd146104445780638836580f146104f257610142565b806312e7cb8c1461014757806323b872dd146101895780632e196a96146101f757806330e0789e1461024f5780633661319e146102bd575b600080fd5b6101736004803603602081101561015d57600080fd5b8101908080359060200190929190505050610add565b6040518082815260200191505060405180910390f35b6101f56004803603606081101561019f57600080fd5b81019080803573ffffffffffffffffffffffffffffffffffffffff169060200190929190803573ffffffffffffffffffffffffffffffffffffffff16906020019092919080359060200190929190505050610af5565b005b6102396004803603602081101561020d57600080fd5b81019080803573ffffffffffffffffffffffffffffffffffffffff169060200190929190505050610b70565b6040518082815260200191505060405180910390f35b6102bb6004803603606081101561026557600080fd5b81019080803573ffffffffffffffffffffffffffffffffffffffff169060200190929190803573ffffffffffffffffffffffffffffffffffffffff16906020019092919080359060200190929190505050610b88565b005b6102e9600480360360208110156102d357600080fd5b8101908080359060200190929190505050610daa565b6040518082815260200191505060405180910390f35b6103416004803603602081101561031557600080fd5b81019080803573ffffffffffffffffffffffffffffffffffffffff169060200190929190505050610e8f565b6040518080602001828103825283818151815260200191508051906020019060200280838360005b83811015610384578082015181840152602081019050610369565b505050509050019250505060405180910390f35b6103a0610fb9565b604051808273ffffffffffffffffffffffffffffffffffffffff1673ffffffffffffffffffffffffffffffffffffffff16815260200191505060405180910390f35b610424600480360360208110156103f857600080fd5b81019080803573ffffffffffffffffffffffffffffffffffffffff169060200190929190505050610fc1565b6040518082815260200191505060405180910390f35b61044261100a565b005b6104706004803603602081101561045a57600080fd5b810190808035906020019092919050505061110a565b6040518080602001838152602001828103825284818151815260200191508051906020019080838360005b838110156104b657808201518184015260208101905061049b565b50505050905090810190601f1680156104e35780820380516001836020036101000a031916815260200191505b50935050505060405180910390f35b6106566004803603608081101561050857600080fd5b810190808035906020019064010000000081111561052557600080fd5b82018360208201111561053757600080fd5b8035906020019184600183028401116401000000008311171561055957600080fd5b91908080601f016020809104026020016040519081016040528093929190818152602001838380828437600081840152601f19601f820116905080830192505050505050509192919290803590602001906401000000008111156105bc57600080fd5b8201836020820111156105ce57600080fd5b803590602001918460018302840111640100000000831117156105f057600080fd5b91908080601f016020809104026020016040519081016040528093929190818152602001838380828437600081840152601f19601f82011690508083019250505050505050919291929080359060200190929190803590602001909291905050506111d3565b005b610660611491565b6040518082815260200191505060405180910390f35b61067e61149e565b604051808273ffffffffffffffffffffffffffffffffffffffff1673ffffffffffffffffffffffffffffffffffffffff16815260200191505060405180910390f35b6106ec600480360360208110156106d657600080fd5b81019080803590602001909291905050506114c3565b604051808273ffffffffffffffffffffffffffffffffffffffff1673ffffffffffffffffffffffffffffffffffffffff16815260200191505060405180910390f35b61075a6004803603602081101561074457600080fd5b81019080803590602001909291905050506114f6565b60405180878152602001806020018060200186815260200185815260200184151515158152602001838103835288818151815260200191508051906020019080838360005b838110156107ba57808201518184015260208101905061079f565b50505050905090810190601f1680156107e75780820380516001836020036101000a031916815260200191505b50838103825287818151815260200191508051906020019080838360005b83811015610820578082015181840152602081019050610805565b50505050905090810190601f16801561084d5780820380516001836020036101000a031916815260200191505b509850505050505050505060405180910390f35b6108976004803603604081101561087757600080fd5b81019080803590602001909291908035906020019092919050505061167c565b005b6108c5600480360360208110156108af57600080fd5b81019080803590602001909291905050506117da565b6040518082815260200191505060405180910390f35b6108e3611805565b6040518082815260200191505060405180910390f35b6109bc6004803603604081101561090f57600080fd5b810190808035906020019064010000000081111561092c57600080fd5b82018360208201111561093e57600080fd5b8035906020019184600183028401116401000000008311171561096057600080fd5b91908080601f016020809104026020016040519081016040528093929190818152602001838380828437600081840152601f19601f82011690508083019250505050505050919291929080359060200190929190505050611812565b005b610a00600480360360208110156109d457600080fd5b81019080803573ffffffffffffffffffffffffffffffffffffffff16906020019092919050505061198e565b005b610a2e60048036036020811015610a1857600080fd5b81019080803590602001909291905050506119f3565b6040518080602001828103825283818151815260200191508051906020019060200280838360005b83811015610a71578082015181840152602081019050610a56565b505050509050019250505060405180910390f35b610ac760048036036020811015610a9b57600080fd5b81019080803573ffffffffffffffffffffffffffffffffffffffff169060200190929190505050611a82565b6040518082815260200191505060405180910390f35b60076020528060005260406000206000915090505481565b3373ffffffffffffffffffffffffffffffffffffffff166004600083815260200190815260200160002060009054906101000a900473ffffffffffffffffffffffffffffffffffffffff1673ffffffffffffffffffffffffffffffffffffffff1614610b6057600080fd5b610b6b838383610b88565b505050565b60026020528060005260406000206000915090505481565b610bdb6001600360008573ffffffffffffffffffffffffffffffffffffffff1673ffffffffffffffffffffffffffffffffffffffff16815260200190815260200160002054611a9a90919063ffffffff16565b600360008473ffffffffffffffffffffffffffffffffffffffff1673ffffffffffffffffffffffffffffffffffffffff16815260200190815260200160002081905550610c716001600360003373ffffffffffffffffffffffffffffffffffffffff1673ffffffffffffffffffffffffffffffffffffffff16815260200190815260200160002054611ab490919063ffffffff16565b600360003373ffffffffffffffffffffffffffffffffffffffff1673ffffffffffffffffffffffffffffffffffffffff16815260200190815260200160002081905550816004600083815260200190815260200160002060006101000a81548173ffffffffffffffffffffffffffffffffffffffff021916908373ffffffffffffffffffffffffffffffffffffffff1602179055507fddf252ad1be2c89b69c2b068fc378daa952ba7f163c4a11628f55a4df523b3ef838383604051808473ffffffffffffffffffffffffffffffffffffffff1673ffffffffffffffffffffffffffffffffffffffff1681526020018373ffffffffffffffffffffffffffffffffffffffff1673ffffffffffffffffffffffffffffffffffffffff168152602001828152602001935050505060405180910390a1505050565b6000805b600680549050811015610df7578260068281548110610dc957fe5b9060005260206000209060020201600001541415610dea5780915050610e8a565b8080600101915050610dae565b50606060006001600660405180604001604052808781526020018581525090806001815401808255809150509060018203906000526020600020906002020160009091929091909150600082015181600001556020820151816001019080519060200190610e66929190611bde565b50505003905080600760008681526020019081526020016000208190555080925050505b919050565b606080600360008473ffffffffffffffffffffffffffffffffffffffff1673ffffffffffffffffffffffffffffffffffffffff16815260200190815260200160002054604051908082528060200260200182016040528015610f005781602001602082028038833980820191505090505b509050600080905060005b600180549050811015610fae578473ffffffffffffffffffffffffffffffffffffffff166004600083815260200190815260200160002060009054906101000a900473ffffffffffffffffffffffffffffffffffffffff1673ffffffffffffffffffffffffffffffffffffffff161415610fa15780838381518110610f8c57fe5b60200260200101818152505081806001019250505b8080600101915050610f0b565b508192505050919050565b600033905090565b6000600360008373ffffffffffffffffffffffffffffffffffffffff1673ffffffffffffffffffffffffffffffffffffffff168152602001908152602001600020549050919050565b6000809054906101000a900473ffffffffffffffffffffffffffffffffffffffff1673ffffffffffffffffffffffffffffffffffffffff163373ffffffffffffffffffffffffffffffffffffffff161461106357600080fd5b6000809054906101000a900473ffffffffffffffffffffffffffffffffffffffff1673ffffffffffffffffffffffffffffffffffffffff167ff8df31144d9c2f0f6b59d69b8b98abd5459d07f2742c4df920b25aae33c6482060405160405180910390a260008060006101000a81548173ffffffffffffffffffffffffffffffffffffffff021916908373ffffffffffffffffffffffffffffffffffffffff160217905550565b6005818154811061111757fe5b9060005260206000209060020201600091509050806000018054600181600116156101000203166002900480601f0160208091040260200160405190810160405280929190818152602001828054600181600116156101000203166002900480156111c35780601f10611198576101008083540402835291602001916111c3565b820191906000526020600020905b8154815290600101906020018083116111a657829003601f168201915b5050505050908060010154905082565b6000600180549050905060006001806040518060c001604052808581526020018981526020018881526020018781526020018681526020016001151581525090806001815401808255809150509060018203906000526020600020906006020160009091929091909150600082015181600001556020820151816001019080519060200190611263929190611c2b565b506040820151816002019080519060200190611280929190611c2b565b50606082015181600301556080820151816004015560a08201518160050160006101000a81548160ff0219169083151502179055505050039050336004600083815260200190815260200160002060006101000a81548173ffffffffffffffffffffffffffffffffffffffff021916908373ffffffffffffffffffffffffffffffffffffffff160217905550600360003373ffffffffffffffffffffffffffffffffffffffff1673ffffffffffffffffffffffffffffffffffffffff168152602001908152602001600020600081548092919060010191905055507f557bf9091e5e17797594eb1f2a2ed64dbbbbfd9dc4ec21bfe6a35959540cd9a68187878787600160405180878152602001806020018060200186815260200185815260200184151515158152602001838103835288818151815260200191508051906020019080838360005b838110156113e35780820151818401526020810190506113c8565b50505050905090810190601f1680156114105780820380516001836020036101000a031916815260200191505b50838103825287818151815260200191508051906020019080838360005b8381101561144957808201518184015260208101905061142e565b50505050905090810190601f1680156114765780820380516001836020036101000a031916815260200191505b509850505050505050505060405180910390a1505050505050565b6000600580549050905090565b6000809054906101000a900473ffffffffffffffffffffffffffffffffffffffff1681565b60046020528060005260406000206000915054906101000a900473ffffffffffffffffffffffffffffffffffffffff1681565b6001818154811061150357fe5b9060005260206000209060060201600091509050806000015490806001018054600181600116156101000203166002900480601f0160208091040260200160405190810160405280929190818152602001828054600181600116156101000203166002900480156115b55780601f1061158a576101008083540402835291602001916115b5565b820191906000526020600020905b81548152906001019060200180831161159857829003601f168201915b505050505090806002018054600181600116156101000203166002900480601f0160208091040260200160405190810160405280929190818152602001828054600181600116156101000203166002900480156116535780601f1061162857610100808354040283529160200191611653565b820191906000526020600020905b81548152906001019060200180831161163657829003601f168201915b5050505050908060030154908060040154908060050160009054906101000a900460ff16905086565b816004600082815260200190815260200160002060009054906101000a900473ffffffffffffffffffffffffffffffffffffffff1673ffffffffffffffffffffffffffffffffffffffff163373ffffffffffffffffffffffffffffffffffffffff16146116e857600080fd5b81600080905060008090505b60058054905081101561173d57826005828154811061170f57fe5b90600052602060002090600202016001015414156117305781806001019250505b80806001019150506116f4565b506001811461174b57600080fd5b60006001868154811061175a57fe5b9060005260206000209060060201905061177381611acb565b61177c57600080fd5b600061178787610daa565b90506006818154811061179657fe5b906000526020600020906002020160010186908060018154018082558091505090600182039060005260206000200160009091929091909150555050505050505050565b600681815481106117e757fe5b90600052602060002090600202016000915090508060000154905081565b6000600680549050905090565b6000809054906101000a900473ffffffffffffffffffffffffffffffffffffffff1673ffffffffffffffffffffffffffffffffffffffff163373ffffffffffffffffffffffffffffffffffffffff161461186b57600080fd5b6000600160056040518060400160405280868152602001858152509080600181540180825580915050906001820390600052602060002090600202016000909192909190915060008201518160000190805190602001906118cd929190611c2b565b506020820151816001015550500390507f92062fc2c4762cb106802cc2c6da83d475d7570034c04db9347b05eb45e43c708184846040518084815260200180602001838152602001828103825284818151815260200191508051906020019080838360005b8381101561194d578082015181840152602081019050611932565b50505050905090810190601f16801561197a5780820380516001836020036101000a031916815260200191505b5094505050505060405180910390a1505050565b6000809054906101000a900473ffffffffffffffffffffffffffffffffffffffff1673ffffffffffffffffffffffffffffffffffffffff163373ffffffffffffffffffffffffffffffffffffffff16146119e757600080fd5b6119f081611ae6565b50565b606060006007600084815260200190815260200160002054905060068181548110611a1a57fe5b9060005260206000209060020201600101805480602002602001604051908101604052809291908181526020018280548015611a7557602002820191906000526020600020905b815481526020019060010190808311611a61575b5050505050915050919050565b60036020528060005260406000206000915090505481565b6000818301905082811015611aab57fe5b80905092915050565b600082821115611ac057fe5b818303905092915050565b60008160050160009054906101000a900460ff169050919050565b600073ffffffffffffffffffffffffffffffffffffffff168173ffffffffffffffffffffffffffffffffffffffff161415611b2057600080fd5b8073ffffffffffffffffffffffffffffffffffffffff166000809054906101000a900473ffffffffffffffffffffffffffffffffffffffff1673ffffffffffffffffffffffffffffffffffffffff167f8be0079c531659141344cd1fd0a4f28419497f9722a3daafe3b4186f6b6457e060405160405180910390a3806000806101000a81548173ffffffffffffffffffffffffffffffffffffffff021916908373ffffffffffffffffffffffffffffffffffffffff16021790555050565b828054828255906000526020600020908101928215611c1a579160200282015b82811115611c19578251825591602001919060010190611bfe565b5b509050611c279190611cab565b5090565b828054600181600116156101000203166002900490600052602060002090601f016020900481019282601f10611c6c57805160ff1916838001178555611c9a565b82800160010185558215611c9a579182015b82811115611c99578251825591602001919060010190611c7e565b5b509050611ca79190611cab565b5090565b611ccd91905b80821115611cc9576000816000905550600101611cb1565b5090565b9056fea265627a7a7231582086d78d96d27323d4d5d6becb00ea23a05e555ea0c6d469d7801802c0070c27e364736f6c63430005100032",
  "source": "pragma solidity >=0.4.21 <0.7.0;\n\nimport \"./PatientFactory.sol\";\nimport \"./SickFactory.sol\";\n\ncontract SetSick is PatientFactory, SickFactory {\n    struct SickCode {\n        uint256 idpatient; //id patient\n        uint256[] sickcodeData;\n    }\n\n    SickCode[] public sickcodes;\n\n    mapping(uint256 => uint256) public PatientToSick; // benh nhanh -> id cua mang luu tru cac loai benh : sickcodeid\n\n    function _isLiving(Patient storage _patient) internal view returns (bool) {\n        return _patient.living;\n\n    }\n\n    function _setPatientSick(uint256 _patientId, uint256 _sickCode)\n        public\n        onlyOwnerOf(_patientId)\n        isSick(_sickCode)\n    {\n        // patient mac benh\n        Patient storage myPatient = patients[_patientId];\n        require(_isLiving(myPatient));\n        uint256 a = PatientIdInSickCode(_patientId);\n        sickcodes[a].sickcodeData.push(_sickCode);\n\n    }\n\n    function viewSickCode(uint256 _patientId)\n        public\n        view\n        returns (uint256[] memory)\n    {\n        uint256 x = PatientToSick[_patientId];\n\n        return (sickcodes[x].sickcodeData);\n\n    }\n\n    function countSickCode() public view returns (uint256) {\n        return sickcodes.length;\n\n    }\n\n    function PatientIdInSickCode(uint256 _patientId) public returns (uint256) {\n        // kiem tra xem patient da dk khai bao trong sickcodes chua .\n        for (uint256 i; i < sickcodes.length; i++) {\n            if (sickcodes[i].idpatient == _patientId) {\n                return i;\n            }\n        }\n        uint256[] memory a;\n        uint256 x = sickcodes.push(SickCode(_patientId, a)) - 1;\n        PatientToSick[_patientId] = x;\n        return x;\n    }\n\n}\n",
  "sourcePath": "/home/thanhvuong/thanh/PatientSC/contracts/SetSick.sol",
  "compiler": {
    "name": "solc",
    "version": "0.5.16+commit.9c3226ce.Emscripten.clang"
  },
  "schemaVersion": "3.0.23",
  "updatedAt": "2020-03-12T08:05:24.047Z",
  "networkType": "ethereum",
  "devdoc": {
    "methods": {
      "renounceOwnership()": {
        "details": "Allows the current owner to relinquish control of the contract."
      },
      "transferOwnership(address)": {
        "details": "Allows the current owner to transfer control of the contract to a newOwner.",
        "params": {
          "_newOwner": "The address to transfer ownership to."
        }
      }
    }
  },
  "userdoc": {
    "methods": {
      "renounceOwnership()": {
        "notice": "Renouncing to ownership will leave the contract without an owner. It will not be possible to call the functions with the `onlyOwner` modifier anymore."
      }
    }
  }
}