{
  "contractName": "SickFactory",
  "abi": [
    {
      "anonymous": false,
      "inputs": [
        {
          "indexed": false,
          "internalType": "uint256",
          "name": "sickId",
          "type": "uint256"
        },
        {
          "indexed": false,
          "internalType": "string",
          "name": "name",
          "type": "string"
        },
        {
          "indexed": false,
          "internalType": "uint256",
          "name": "sickCode",
          "type": "uint256"
        }
      ],
      "name": "NewSick",
      "type": "event"
    },
    {
      "anonymous": false,
      "inputs": [
        {
          "indexed": true,
          "internalType": "address",
          "name": "previousOwner",
          "type": "address"
        }
      ],
      "name": "OwnershipRenounced",
      "type": "event"
    },
    {
      "anonymous": false,
      "inputs": [
        {
          "indexed": true,
          "internalType": "address",
          "name": "previousOwner",
          "type": "address"
        },
        {
          "indexed": true,
          "internalType": "address",
          "name": "newOwner",
          "type": "address"
        }
      ],
      "name": "OwnershipTransferred",
      "type": "event"
    },
    {
      "constant": true,
      "inputs": [],
      "name": "owner",
      "outputs": [
        {
          "internalType": "address",
          "name": "",
          "type": "address"
        }
      ],
      "payable": false,
      "stateMutability": "view",
      "type": "function"
    },
    {
      "constant": false,
      "inputs": [],
      "name": "renounceOwnership",
      "outputs": [],
      "payable": false,
      "stateMutability": "nonpayable",
      "type": "function"
    },
    {
      "constant": true,
      "inputs": [
        {
          "internalType": "uint256",
          "name": "",
          "type": "uint256"
        }
      ],
      "name": "sicks",
      "outputs": [
        {
          "internalType": "string",
          "name": "name",
          "type": "string"
        },
        {
          "internalType": "uint256",
          "name": "sickCode",
          "type": "uint256"
        }
      ],
      "payable": false,
      "stateMutability": "view",
      "type": "function"
    },
    {
      "constant": false,
      "inputs": [
        {
          "internalType": "address",
          "name": "_newOwner",
          "type": "address"
        }
      ],
      "name": "transferOwnership",
      "outputs": [],
      "payable": false,
      "stateMutability": "nonpayable",
      "type": "function"
    },
    {
      "constant": false,
      "inputs": [
        {
          "internalType": "string",
          "name": "_name",
          "type": "string"
        },
        {
          "internalType": "uint256",
          "name": "_sickCode",
          "type": "uint256"
        }
      ],
      "name": "_createSick",
      "outputs": [],
      "payable": false,
      "stateMutability": "nonpayable",
      "type": "function"
    },
    {
      "constant": true,
      "inputs": [],
      "name": "_countSick",
      "outputs": [
        {
          "internalType": "uint256",
          "name": "",
          "type": "uint256"
        }
      ],
      "payable": false,
      "stateMutability": "view",
      "type": "function"
    }
  ],
  "bytecode": "0x6080604052336000806101000a81548173ffffffffffffffffffffffffffffffffffffffff021916908373ffffffffffffffffffffffffffffffffffffffff16021790555061083d806100536000396000f3fe608060405234801561001057600080fd5b50600436106100625760003560e01c8063715018a614610067578063733b17bd146100715780638b215cd11461011f5780638da5cb5b1461013d578063c2003a0014610187578063f2fde38b1461024c575b600080fd5b61006f610290565b005b61009d6004803603602081101561008757600080fd5b8101908080359060200190929190505050610390565b6040518080602001838152602001828103825284818151815260200191508051906020019080838360005b838110156100e35780820151818401526020810190506100c8565b50505050905090810190601f1680156101105780820380516001836020036101000a031916815260200191505b50935050505060405180910390f35b610127610459565b6040518082815260200191505060405180910390f35b610145610466565b604051808273ffffffffffffffffffffffffffffffffffffffff1673ffffffffffffffffffffffffffffffffffffffff16815260200191505060405180910390f35b61024a6004803603604081101561019d57600080fd5b81019080803590602001906401000000008111156101ba57600080fd5b8201836020820111156101cc57600080fd5b803590602001918460018302840111640100000000831117156101ee57600080fd5b91908080601f016020809104026020016040519081016040528093929190818152602001838380828437600081840152601f19601f8201169050808301925050505050505091929192908035906020019092919050505061048b565b005b61028e6004803603602081101561026257600080fd5b81019080803573ffffffffffffffffffffffffffffffffffffffff169060200190929190505050610606565b005b6000809054906101000a900473ffffffffffffffffffffffffffffffffffffffff1673ffffffffffffffffffffffffffffffffffffffff163373ffffffffffffffffffffffffffffffffffffffff16146102e957600080fd5b6000809054906101000a900473ffffffffffffffffffffffffffffffffffffffff1673ffffffffffffffffffffffffffffffffffffffff167ff8df31144d9c2f0f6b59d69b8b98abd5459d07f2742c4df920b25aae33c6482060405160405180910390a260008060006101000a81548173ffffffffffffffffffffffffffffffffffffffff021916908373ffffffffffffffffffffffffffffffffffffffff160217905550565b6001818154811061039d57fe5b9060005260206000209060020201600091509050806000018054600181600116156101000203166002900480601f0160208091040260200160405190810160405280929190818152602001828054600181600116156101000203166002900480156104495780601f1061041e57610100808354040283529160200191610449565b820191906000526020600020905b81548152906001019060200180831161042c57829003601f168201915b5050505050908060010154905082565b6000600180549050905090565b6000809054906101000a900473ffffffffffffffffffffffffffffffffffffffff1681565b6000809054906101000a900473ffffffffffffffffffffffffffffffffffffffff1673ffffffffffffffffffffffffffffffffffffffff163373ffffffffffffffffffffffffffffffffffffffff16146104e457600080fd5b6000600180604051806040016040528086815260200185815250908060018154018082558091505090600182039060005260206000209060020201600090919290919091506000820151816000019080519060200190610545929190610763565b506020820151816001015550500390507f92062fc2c4762cb106802cc2c6da83d475d7570034c04db9347b05eb45e43c708184846040518084815260200180602001838152602001828103825284818151815260200191508051906020019080838360005b838110156105c55780820151818401526020810190506105aa565b50505050905090810190601f1680156105f25780820380516001836020036101000a031916815260200191505b5094505050505060405180910390a1505050565b6000809054906101000a900473ffffffffffffffffffffffffffffffffffffffff1673ffffffffffffffffffffffffffffffffffffffff163373ffffffffffffffffffffffffffffffffffffffff161461065f57600080fd5b6106688161066b565b50565b600073ffffffffffffffffffffffffffffffffffffffff168173ffffffffffffffffffffffffffffffffffffffff1614156106a557600080fd5b8073ffffffffffffffffffffffffffffffffffffffff166000809054906101000a900473ffffffffffffffffffffffffffffffffffffffff1673ffffffffffffffffffffffffffffffffffffffff167f8be0079c531659141344cd1fd0a4f28419497f9722a3daafe3b4186f6b6457e060405160405180910390a3806000806101000a81548173ffffffffffffffffffffffffffffffffffffffff021916908373ffffffffffffffffffffffffffffffffffffffff16021790555050565b828054600181600116156101000203166002900490600052602060002090601f016020900481019282601f106107a457805160ff19168380011785556107d2565b828001600101855582156107d2579182015b828111156107d15782518255916020019190600101906107b6565b5b5090506107df91906107e3565b5090565b61080591905b808211156108015760008160009055506001016107e9565b5090565b9056fea265627a7a723158208897a0a68cdfee068c9a2a3d0bd53ca8fc6f5a433c4118b7c107d0e9697d2b7264736f6c63430005100032",
  "source": "pragma solidity >=0.4.21 <0.7.0;\n\nimport \"../libs/openzeppelin-solidity/contracts/ownership/Ownable.sol\";\n\ncontract SickFactory is Ownable {\n    event NewSick(uint256 sickId, string name, uint256 sickCode);\n\n    struct Sick {\n        string name;\n        uint256 sickCode; //ma benh\n    }\n\n    Sick[] public sicks;\n\n    modifier isSick(uint256 _sickCode) {\n        uint256 a = 0;\n        for (uint256 i = 0; i < sicks.length; i++) {\n            if (sicks[i].sickCode == _sickCode) a++;\n        }\n        require(a == 1);\n        _;\n    }\n\n    function _createSick(string memory _name, uint256 _sickCode)\n        public\n        onlyOwner\n    {\n        uint256 id = sicks.push(Sick(_name, _sickCode)) - 1;\n        emit NewSick(id, _name, _sickCode);\n    }\n\n    function _countSick() public view returns (uint256) {\n        return sicks.length;\n    }\n\n}\n",
  "sourcePath": "/home/thanhvuong/thanh/PatientSC/contracts/SickFactory.sol",
  "compiler": {
    "name": "solc",
    "version": "0.5.16+commit.9c3226ce.Emscripten.clang"
  },
  "schemaVersion": "3.0.23",
  "updatedAt": "2020-03-12T08:05:23.643Z",
  "networkType": "ethereum",
  "devdoc": {
    "methods": {
      "renounceOwnership()": {
        "details": "Allows the current owner to relinquish control of the contract."
      },
      "transferOwnership(address)": {
        "details": "Allows the current owner to transfer control of the contract to a newOwner.",
        "params": {
          "_newOwner": "The address to transfer ownership to."
        }
      }
    }
  },
  "userdoc": {
    "methods": {
      "renounceOwnership()": {
        "notice": "Renouncing to ownership will leave the contract without an owner. It will not be possible to call the functions with the `onlyOwner` modifier anymore."
      }
    }
  }
}